:10215E0000A8C0003F065B4F666D7D077F6F0008CD
:0E216E0040014148BF86DBCFE6EDFD87FFEF65
:1008000001225A0127FC02290000022300000128CE
:100810000063E900002104230823042320000000D2
:1008200000000000000000000000000000000000C8
:1008300000000000000000000000000000000000B8
:1008400000000000000000000000000000000000A8
:100850000000000000000000000000000000000098
:100BF0000000000000000000000000000000022BC8
:060C0000000002250000C7
:082256007F6C7E91DEFEDFFCCF
:01225E00225D
:101E4800852A30AB29AD22AF27121734E524640167
:101E580045237033E528D394FE502CAD29AF2812C2
:101E680021D00528122256AD2AAF281221D00528E4
:101E7800122256E4F531F532F533852934852A35B1
:081E8800FBFDAF2812213E22F0
:10188600E4FF121F1BBF011EE52445237007F52345
:101896007524018005E4F523F524E52C6401452B28
:1018A6007004F52BF52C7F01121F1BEF6401707578
:1018B600E52C452B7007F52B752C018005E4F52BDF
:1018C600F52CE524640145237004F523F524E52C65
:0618D6006401452B704A7D
:1018DC00F52DE52D65286019AF2D12219974002581
:1018EC002DF582E43400F583EFF0052D122256809D
:1018FC00E1900000E0FFA3E0FDA3E0FBA3E0F531E5
:10190C00A3E0F532A3E0F533A3E0F534A3E0F5351D
:08191C0012213E1222567F0148
:0819240080027F0312208C22D7
:101B7900E4FD7F807E2512192C12220612211E12E5
:101B890021B57D07E4FF12225F12217C7BFF7A1EBB
:101B990079487F0A121BFC753200753300753400D1
:101BA9007B007A0079297D027C00121FD87BFF7A9D
:101BB9001879867F04121BFC753106753206753358
:101BC900067534067535067B067D067F0612213EAD
:101BD900E4FF1222817B017A0079007532037533A3
:101BE900E97534F2AD27AF22121D4F122287121F59
:031BF9009A80FBD4
:04206400151F151F10
:10206800122268A81FA60608A607A81FE6FE08E60B
:0F207800FF4E600BEF24FFFFEE34FFFE122271CC
:05208700051F051F22EA
:10211E0053B1EF43B210122296E4F5D975DA49D2D3
:10212E00DE90042874FFF0A37420F0A37464F022F0
:081C79008E338F348C358D365B
:101C8100122268EF4E7066AF36AE35122271C3E58F
:101C910034940AE5339400404BE47B18FAF9F89048
:101CA100215E1211EA121131C006C007AE33AF3402
:101CB100AB07AA06E4F9F8D007D006121131AB0739
:101CC100AA06AFF9EFFEADE97C00E42DFFEC3ECFB3
:101CD1002BCF3AAD07FCAF03AE021221E5D2D843B8
:0F1CE100DA01800612229653DAFE7F02227F0379
:011CF00022D1
:0C223F00122268EF4E7002FF227F012285
:10157E00E4F580900489E0FFB40800505F90159266
:10158E00F82828730215AA0215B00215B60215BC6A
:10159E000215C20215CC0215D60215E0C2A3C2A2D4
:1015AE008016C2A3C2A2801AC2A3C2A2801EC2A368
:1015BE00C2A28022C2A3D2A2C2A1C2A08020C2A374
:1015CE00D2A2C2A1D2A08016C2A3D2A2D2A1C2A080
:1015DE00800CC2A3D2A2D2A1D2A08002D2A3C3EF0A
:1015EE00648094885029900489E0FF3395E0FE745E
:1015FE00802FF58274043EF583E0FF3395E0FE7490
:10160E00622FF58274213EF583E493F580801E905F
:10161E000489E0FFB408133395E0FE74802FF58241
:10162E0074043EF583E0F5808003E4F58090047F3A
:10163E00E0FF900489E004FEF0D3EF6480F8EE64DE
:10164E0080984014E0D36480948850047408F0228B
:09165E0090047EE0900489F02262
:1021B500E4F5937594FF5395F043960F90041374CB
:0B21C500FFF0A37415F0A3747EF0225D
:09225F0090047EEFF0A3EDF022E3
:10213E00900480EFF0A3EDF0A3EBF0A3E531F0A354
:10214E00E532F0A3E533F0A3E534F0A3E535F02254
:06228100900488EFF0223A
:100C0600011E0049048B949400949400949400412E
:030C1600048A1E2F
:02133E00151F79
:1013400020B20690048BE014F020B30690048EE0E7
:1013500014F0209706900491E014F090048AE014B1
:10136000F0600302145E741EF0A81FE4F6A81FE6E6
:10137000FFC364809483400302145EEF3395E0FE64
:1013800090048B75F003EF121206EE75F003A4259E
:1013900083F583E0C39480503990048C75F003EF9B
:1013A000121206EE75F003A42583F583E0D3948032
:1013B000405AE6FF3395E0FE90048D75F003EF127E
:1013C0001206EE75F003A42583F5837401F0F51E73
:1013D000803AA81FE6FF3395E0FE90048C75F00379
:1013E000EF121206EE75F003A42583F583E0C39493
:1013F00080501990048D75F003EF121206EE75F00F
:1014000003A42583F5837402F0751E01A81FE6FF6F
:10141000FD3395E0FC90048B75F003ED121206ECA1
:1014200075F003A42583F583E0FE90048C75F0032A
:10143000ED121206EC75F003A42583F583EEF0EFB0
:101440003395E0FE90048B75F003EF121206EE75F3
:0E145000F003A42583F5837494F00602136D57
:03145E00051F2245
:02222400151F84
:09222600A81FA61EE4F51EE6FF48
:03222F00051F2266
:10217C0090041974FFF0A37422F0A37424F090045B
:0D218C001674FFF0A37413F0A3743EF0224C
:101F1B00EF600764016003BF0233EFFD3395E0FC14
:101F2B0090048D75F003ED121206EC75F003A425E9
:101F3B0083F583E0FE90048D75F003ED121206EC31
:0F1F4B0075F003A42583F583E4F0AF06227F032E
:011F5A002264
:100C19004103E90A4104120A4104560A040E00007C
:100C290000000116004604500000FFFF8FFFC10AB3
:100C3900C105C108C101C10B602403EEFF2299FF60
:100C49002299FF2299FF2299FF2299FF2299FF22D7
:100C590099FF2299FF2299FF2299FF2299FF229950
:100C690060360413FF2299FF2299FF2293FF2299EC
:100C7900FF2293FF2299FF2293FF2299FF2299FFD6
:100C89002299FF2293FF2293FF2293FF2293FF22AF
:0A0C990099FF2299FF2299FF22998A
:012299002222
:032293007F0022A7
:101E9000438E805389F07BE07A2879017800902185
:101EA0005E1211EA121ED7EFF404F58A7BE07A285D
:101EB0007901780090215E1211EA121ED7C3E49FC7
:101EC000FFE49EFE74019DFDE49CFC78081211D68F
:071ED0008F8CD28CD2A922F5
:03000B00021DFAD9
:041DFA00C0E0C0D0B5
:101DFE00D5080A75084C300A020516D20AA20372DB
:101E0E00045032150AE50A702C850C0AD2073009E7
:101E1E0017E50D6007150D438F018019538FFEC214
:101E2E00B5D51811C209800D050BE50BD3940640EC
:051E3E0004D206C203FE
:051E4300D0D0D0E03218
:101DA700300B47C20B90215E1211EA78101211D640
:101DB7008E1C8F1D9003ECE0FEA3E0FFE4FCFD7B8F
:101DC70019FAF9F81210A6C006C007AE1CAF1DAB72
:101DD70007AA06E4F9F8D007D006121ED77803122F
:101DE70011D690044EEEF0A3EFF090044EE0FEA360
:021DF700E0FF0B
:011DF90022C7
:09226800900450E0FEA3E0FF2207
:09227100900450EEF0A3EFF022FE
:1021E500900454EEF0A3EFF0900452ECF0A3EDF060
:0121F50022C7
:03229600C2B422AD
:03003B000217DECB
:1017DE00C0E0C083C082C0D075D000C004C005C0B8
:0317EE0006C0072B
:1017F10030DF04C2DF807D30DA04C2DA807630D98E
:101801003DC2D9AFFBEFFEADEB7C00E42DFFEC3E1A
:1018110020000E9003EAF0A3EFF075DB11D20080F7
:1018210053FE9003EAE0FCA3E0FDC3EF9DFFEE9CB5
:10183100A3F0A3EFF075DB00C200D20B803630D8E5
:1018410033C2D8900450E07002A3E06022B2B49099
:101851000452E0FEA3E0F5EAEEF5FAA3E0FEA3E010
:10186100FF900453E02FF0900452E03EF08005C257
:04187100B453DAFE94
:10187500D007D006D005D004D0D0D082D083D0E018
:011885003230
:06228700121E90D2AF22EE
:101AEE003004047F0180027F002009047E01800201
:101AFE007E00EE5F6074E517C395095068300236BC
:101B0E00750D01E517131313541FAB19AA1AA91B50
:101B1E00F582758300120FC4FFE517540704FEEF1C
:101B2E00A806088002C333D8FC30D7057518038089
:101B3E002F751801802AAB19AA1AA91B75F002E598
:101B4E0017A4F58285F083120FC4F50DE51775F015
:101B5E0002A429F9EA35F0FA900001120FC4F51823
:0A1B6E000517D20922C204438F10AC
:011B7800224A
:101667009003E9E014F0701F740AF0D20590041299
:10167700E014F07012740AF0D208900456E014F0E7
:101687007005740AF0D201900413A3E0FAA3E0F9FD
:10169700121212900416A3E0FAA3E0F912121290A4
:1016A7000422A3E0FAA3E0F912121290042EA3E099
:1016B700FAA3E0F912121290043DA3E0FAA3E0F9AD
:1016C700121212900446A3E0FAA3E0F91212129044
:1016D70003EEA3E0FAA3E0F9121212900434A3E098
:1016E700FAA3E0F9121212EF600C900406A3E0FAD5
:1016F700A3E0F9121212900437A3E0FAA3E0F9125B
:101707001212EF600C900409A3E0FAA3E0F9121299
:101717001290043AA3E0FAA3E0F9121212EF600C58
:0D17270090040CA3E0FAA3E0F912121222C4
:1019CF00900428A3E0FAA3E0F912121290042BA3BB
:1019DF00E0FAA3E0F912121290041CA3E0FAA3E0BC
:1019EF00F91212129003F1A3E0FAA3E0F912121206
:1019FF00900419A3E0FAA3E0F9121212EF600C9011
:101A0F0003FAA3E0FAA3E0F912121290041FA3E065
:101A1F00FAA3E0F9121212EF600C900400A3E0FA9F
:101A2F00A3E0F9121212900431A3E0FAA3E0F91225
:101A3F001212EF600C900403A3E0FAA3E0F9121264
:101A4F001230060EC20690040FA3E0FAA3E0F912BB
:031A5F001212223E
:101F5B009003F4A3E0FAA3E0F9121212900425A364
:101F6B00E0FAA3E0F9121212EF600C9003FDA3E06C
:101F7B00FAA3E0F9121212900440A3E0FAA3E0F9DD
:0F1F8B00121212900443A3E0FAA3E0F90212121B
:10203900AF11AE10AD0FAC0E9004491211FA900415
:102049004DE516F0E4F511F510F50FF50EF51690BE
:0B20590003F7A3E0FAA3E0F902121263
:101F9A00300705C207121AEE300A05C20A1216677E
:101FAA00300505C2051219CF300805C208121F5B99
:101FBA00300105C201122039E5112401F511E43579
:0E1FCA0010F510E4350FF50FE4350EF50E227C
:101BFC008B2D8A2E892FEFB40C005070901C0FF88F
:101C0C00282873021C33021C38021C3D021C4202A1
:101C1C001C47021C4C021C51021C56021C5B021C71
:101C2C0060021C65021C6A9003EE80359003F18003
:101C3C00309003F4802B9003F780269003FA8021D8
:101C4C00900400801C9003FD801790040380129078
:101C5C000406800D900409800890040C8003900405
:0D1C6C000FE52DF0A3E52EF0A3E52FF022EB
:07227A007B017A047949227F
:1012180000C400DC00F701060126014A01720188BA
:1012280001B801EE020B024B029302E403100370B3
:1012380003DC04160497052605C800DC00F7011531
:101248000126014A0172019F01B801EE022A024BF0
:10125800029302E4033F037003DC04550497052658
:1012680005C8067D00F701150137014A0172019F83
:1012780001D201EE022A026E029302E4033F03A4A4
:1012880003DC045504DD057505C8067D074901061C
:101298000126014A015D018801B801EE020B024BEB
:1012A800029302BA0310037003DC041604970526A0
:1012B8000575062006E007B80126014A0172018873
:1012C80001B801EE022A024B029302E403100370F4
:1012D80003DC04550497052605C8062006E007B870
:1012E80008AA014A0172019F01B801EE022A026EA2
:1012F800029302E4033F037003DC045504DD052672
:1013080005C8067D06E007B808AA09B9015D018885
:1013180001B801D2020B024B029302BA0310037008
:1013280003A40416049705260575062006E0074958
:06133800082D092D0A4DED
:100CA3004D0471030000000000000000000000007C
:061734008F2D8D2E8B2F7E
:10173A0012223FEF60037F0122E52FD39400400677
:10174A00E52F94114028E52FD394174006E52F94EE
:10175A0021401BE52FD394274006E52F9431400EF4
:10176A00E52FD394375007E52DC394F950037F032F
:10177A0022E52F603DC4540F75F007A4FDACF0E5D7
:10178A002D75F015A42DFFE5F03CFEE52F54077CDE
:10179A00002FFFEC3EFEEF25E0FFEE33FE742E2F06
:1017AA00F58274E93EF583E493F531740193F532D9
:1017BA008005E4F531F532AF307E007C017D771289
:1017CA001013AD2E1C121025AD07AC06AF32AE3188
:0317DA00121C7965
:0117DD0022E9
:040CCE00151F151FBA
:100CD20012223FEF70047F0180027F00900471E0D6
:100CE200FEB402047D0180027D00ED5F6003020F0D
:100CF200BFEEB4030AE490046FF0A3F0020FBF90BA
:100D02000472E0FFB4F3047E0180027E00EFB4F1CE
:100D1200047F0180027F00EF4E603E900474E0FE8B
:100D220075F06484FFEE75F00A8475F00A84ADF004
:100D3200E075F00A84ABF075310A900473E0240781
:100D4200F53290046EE0FEC4540F240AF533753474
:100D52000AEE5407F53512213E900472E0FFB4F317
:100D6200047E0180027E00EFB4F2047F0180027FE4
:100D720000EF4E7003020E18900474E0FD7C007EBA
:100D8200177F70121025A81FA607E6F975F002A4B6
:100D9200FFC390047DE09F90047CE095F05070E0EA
:100DA200FEA3E0FF7C007D0B121013E9FBFD121085
:100DB20025A81F08A60790047CE475F00112109084
:100DC200FED3E5F09BEE94004018A81F08E624F934
:100DD200FFE47EF0A807088005CEC313CE13D8F92E
:100DE200801FA81F08E6FF740F7E00A80708800571
:100DF200C333CE33CED8F97804CEA2E713CE13D8BC
:100E0200F8A81F08F6A81F08E6FF1222818007E44F
:100E120090047CF0A3F0900478E0FEA3E0FFC3907E
:100E2200047BE09F90047AE09E4003020FB91222F5
:100E32003FEF6003020FBF900475E0FBA3E0FAA34B
:100E4200E0F990047AE0FEA3E0F5828E83120FC4EB
:100E5200FFD394375003020F54EF241024FC50792F
:100E6200604524FE7003020EFF147003020F152466
:100E7200026003020F43900475E0FBA3E0FAA3E0D3
:100E8200F990047AE475F00112107A85F082F58304
:100E9200120FC4900473F090047BE004F0709890F9
:100EA200047AE004F08090900475E0FBA3E0FAA3DA
:100EB200E0F990047AE475F00112107A85F082F577
:100EC20083120FC4900474F090047BE004F0706EFF
:100ED20090047AE004F0020E39900475E0FBA3E07E
:100EE200FAA3E0F990047AE475F00112109085F00B
:100EF20082F583120FC4900472F0020E3990047AC4
:100F0200E475F00112107AAFF090046FF0A3EFF0E5
:100F1200020E3990046FE0FEA3E0FF4E60129004CF
:100F22007AEEF0A3EFF0E490046FF0A3F0020E3932
:100F320090047BE004F0700690047AE004F0020E64
:100F42003990047BE004F0700690047AE004F00229
:100F52000E39900478E0FEA3E0FFC390047BE09F8B
:100F620090047AE09E5056900475E0FBA3E0FAA349
:100F7200E0F990047AE475F00112109085F082F5A0
:100F820083120FC490046EF0900473E0FFA3E0FD9F
:100F9200A3E0FBA3E0FAA3E0F990047AE475F00180
:100FA20012109085F082F583120FC4F53090046E12
:0D0FB200E0FB12173480069004717403F008
:050FBF00051F051F22C3
:0F22060090042B74FFF0A3740CF0A374CEF0229D
:101D4F00900471E0B4030DE490047AF0A3F0A3F0D3
:101D5F00A3F0C20CE5346004900472F0EF600490BD
:101D6F000474F0ED6004900473F0E94A60047F019D
:101D7F0080027F00E533453260047E0180027E00E1
:101D8F00EE5F6013900475EBF0A3EAF0A3E9F0A304
:081D9F00E532F0A3E533F02268
:10208C00BF02047E0180027E00BF01047D0180023C
:10209C007D00ED4EFEBF03047D0180027D00ED4E00
:0820AC006005900471EFF022C1
:06228D00900471E0FF2245
:1021F600D2C0000000D2CD000000C2C00000002204
:0D223200C2C0000000D2CD000000D2C022CA
:0B20B4001220D81220BFAF051220D868
:1020BF00E4FFD2CD30C009EFC394FF50030F80F47B
:0820CF00000000C2CD0000007A
:0120D70022E6
:1020D800E4FEEF25E0FFC2CD00000092C000000042
:1020E800D2CD0000000EBE08E9C2CD000000D2C06B
:0320F800000000E5
:0120FB0022C2
:1020FC00C2CD000000D2C000E4FED2CD0000EF251E
:10210C00E0FDA2C0E4334DFF0000C2CD000EBE08BE
:01211C00E9D9
:01211D00229F
:1021D000AC071221F67FA01220D81220BFAF041244
:0521E00020B4022232D0
:02219900AD0790
:10219B001221F67FA01220B41221F67FA11220D8B3
:0921AB001220BF1220FC122232A6
:0121B4002208
:100CB30057045704B00000000000000000000000CB
:0A0CC3000000000001000000000026
:0300430002146143
:10146100C0E0C0F0C083C082C0D075D000C000C051
:1014710001C002C003C004C005C006C007E59A3020
:10148100E141539AFD90045EE0FEA3E0FFC39004A6
:101491005DE09F90045CE09E501F900459E0FBA327
:1014A100E0FAA3E0F9A3E475F00112109085F0824F
:1014B100F583120FC4F59B800A900460E4F0300DAF
:1014C10002C2B7E59A20E003021563539AFE900425
:1014D10061E0FBA3E0FAA3E0F9900466E0FEA3E07B
:1014E100FFF5828E83E59B120FF190046CE0FCA363
:1014F100E0FDC3EF9DEE9C5046900464E0FEA3E046
:10150100FFED9FEC9E5038900469E0FBA3E0FAA345
:10151100E0F9900466E0FEA3E0FFF5828E83120FEE
:10152100C4FD900461E0FBA3E0FAA3E0F98F828E91
:1015310083120FC46D600890046674FFF0A3F090ED
:101541000466E475F00112107AFED3900465E0950B
:10155100F0900464E09E500A900466E4F0A3F0A3C6
:1015610004F0D007D006D005D004D003D002D001BA
:0D157100D000D0D0D082D083D0F0D0E032B6
:02221500151F93
:0A221700900468E0A81FF6FFE4F051
:03222100051F2274
:01229A002221
:10192C008E2D8F2EED42BABD0106C2B7D20D801797
:10193C0090044674FFF0A37422F0A3749AF0E4F5BB
:10194C00DBD290D291C20D759A10E47B04FAF9F8AF
:10195C0090215E1211EA121131C006C007AE2DAFF4
:10196C002EAB07AA06E4F9F8D007D006121131EF16
:10197C00F404F5D7E47B04FAF9F890215E1211EA2D
:10198C00121131C006C007AE2DAF2EAB07AA06E46C
:10199C00F9F8D007D006121131C3E49FFFE49EFE84
:1019AC0074019DFDE49CFC78081211C38FD6438E04
:1019BC001443AF0190043A74FFF0A37422F0A374A3
:0319CC0015F022F1
:101FD800900461EBF0A3EAF0A3E9F0A3ECF0A3ED21
:101FE800F090046CE535F0A3E536F0900469E5322D
:101FF800F0A3E533F0A3E534F0E4900466F0A3F031
:03200800A3F02220
:10200B00900460E07025900459EBF0A3EAF0A3E98B
:10201B00F0E4A3F0A3F0A3ECF0A3EDF0A37401F0B4
:0E202B00300D02D2B7439A027F02227F0322B9
:0B224B00900460E07002FF227F01227F
:101CF1002104230823042320230822082108220881
:101D01002208230823100010210423082304231090
:101D1100240823082512210421200010210424086D
:101D21002404242024082308210815081508230861
:101D31002310001021042308220422102104230867
:0E1D4100220422102104230822042220001074
:03000000021A627F
:0C1A6200787FE4F6D8FD758136021AA9E1
:100FC400BB010CE58229F582E5833AF583E02250E2
:100FD40006E92582F8E622BBFE06E92582F8E2222C
:0D0FE400E58229F582E5833AF583E4932246
:100FF100F8BB010DE58229F582E5833AF583E8F036
:10100100225006E92582C8F622BBFE05E92582C8E1
:02101100F222C9
:10101300EF8DF0A4A8F0CF8CF0A428CE8DF0A42EF1
:02102300FE22AB
:10102500BC000BBE0029EF8DF084FFADF022E4CCAF
:10103500F875F008EF2FFFEE33FEEC33FCEE9DEC78
:10104500984005FCEE9DFE0FD5F0E9E4CEFD22EDBE
:10105500F8F5F0EE8420D21CFEADF075F008EF2F08
:10106500FFED33FD4007985006D5F0F222C398FDF9
:051075000FD5F0EA2296
:10107A00C5F0F8A3E028F0C5F0F8E5821582700201
:06108A001583E038F0229E
:10109000A3F8E0C5F025F0F0E58215827002158313
:0610A000E0C838F0E82270
:1010A600E88FF0A4CC8BF0A42CFCE98EF0A42CFCE9
:1010B6008AF0EDA42CFCEA8EF0A4CDA8F08BF0A467
:1010C6002DCC3825F0FDE98FF0A42CCD35F0FCEBC6
:1010D6008EF0A4FEA9F0EB8FF0A4CFC5F02ECD398B
:0F10E600FEE43CFCEAA42DCE35F0FDE43CFC22F8
:1010F50075F008758200EF2FFFEE33FECD33CDCCB2
:1011050033CCC58233C5829BED9AEC99E582984034
:101115000CF582EE9BFEED9AFDEC99FC0FD5F0D611
:10112500E4CEFBE4CDFAE4CCF9A88222B800C1B93B
:101135000059BA002DEC8BF084CFCECDFCE5F0CB79
:10114500F97818EF2FFFEE33FEED33FDEC33FCEBB2
:1011550033FB10D703994004EB99FB0FD8E5E4F96D
:10116500FA227818EF2FFFEE33FEED33FDEC33FC5A
:10117500C933C910D7059BE99A4007EC9BFCE99A4E
:10118500F90FD8E0E4C9FAE4CCFB2275F010EF2F93
:10119500FFEE33FEED33FDCC33CCC833C810D70793
:1011A5009BEC9AE899400AED9BFDEC9AFCE899F8CE
:0E11B5000FD5F0DAE4CDFBE4CCFAE4C8F92261
:101ED700C2D5E830E70FB2D5E4C39BFBE49AFAE436
:101EE70099F9E498F8EC30E717B2D5121F0D1211E3
:101EF70031E4C39BFBE49AFAE499F9E498F8800388
:101F070012113130D50DE4C39FFFE49EFEE49DFD21
:041F1700E49CFC2228
:1011C300E8600FECC313FCED13FDEE13FEEF13FF0A
:0311D300D8F1222E
:1011D600E86010ECA2E713FCED13FDEE13FEEF132F
:0411E600FFD8F0221C
:1011EA00E493FC740193FD740293FE740393FF224B
:0C11FA00ECF0A3EDF0A3EEF0A3EFF02268
:0C120600A42582F582E5F03583F58322F3
:061212008A838982E47367
:101A6E00021B79E493A3F8E493A34003F68001F2FA
:101A7E0008DFF48029E493A3F85407240CC8C33379
:101A8E00C4540F4420C8834004F456800146F6DF48
:101A9E00E4800B0102040810204080900800E47ED0
:101AAE00019360BCA3FF543F30E509541FFEE4933D
:101ABE00A360010ECF54C025E060A840B8E493A304
:101ACE00FAE493A3F8E493A3C8C582C8CAC583CA2F
:101ADE00F0A3C8C582C8CAC583CADFE9DEE780BEE7
:010CCD000026
:00000001FF
